:020000040800F2
:10000000480C0020CD0100085105000895030008A8
:100010004D05000875020008C70A0008000000002E
:1000200000000000000000000000000009060008B9
:100030007902000800000000C50500081D0700083F
:10004000E7010008E7010008E7010008E7010008F0
:10005000E7010008E7010008E7010008E7010008E0
:10006000E7010008E7010008E7010008E7010008D0
:10007000E7010008E7010008E7010008E7010008C0
:10008000E7010008E7010008E7010008E7010008B0
:10009000E7010008E7010008E7010008E7010008A0
:1000A000E7010008E7010008E7010008E701000890
:1000B00081070008E7010008E7010008E7010008E0
:1000C000E7010008E7010008E7010008E701000870
:1000D000E701000871090008E7010008F9090008B4
:1000E000E7010008E7010008E7010008E701000850
:1000F000E7010008E7010008E7010008E701000840
:10010000E7010008E7010008E7010008E70100082F
:10011000E7010008E7010008E70100089907000867
:10012000E7010008E7010008E7010008E70100080F
:1001300000F002F800F03AF80AA090E8000C8244BF
:100140008344AAF10107DA4501D100F02FF8AFF29C
:10015000090EBAE80F0013F0010F18BFFB1A43F0A5
:1001600001031847080A0000280A0000103A24BFBB
:1001700078C878C1FAD8520724BF30C830C144BF0C
:1001800004680C607047000000230024002500264E
:10019000103A28BF78C1FBD8520728BF30C148BFEA
:1001A0000B6070471FB51FBD10B510BD00F033F8D0
:1001B0001146FFF7F7FF00F0D3FC00F051F803B44D
:1001C000FFF7F2FF03BC00F080FC00000948804705
:1001D00009480047FEE7FEE7FEE7FEE7FEE7FEE729
:1001E000FEE7FEE7FEE7FEE704480549054A064B41
:1001F0007047000021070008310100084806002070
:10020000480C00204808002048080020704770472C
:10021000704770477047754600F028F8AE460500F5
:100220006946534620F00700854618B020B5FFF711
:10023000DBFFBDE820404FF000064FF000074FF015
:1002400000084FF0000B21F00701AC46ACE8C009F4
:10025000ACE8C009ACE8C009ACE8C0098D467047FD
:100260000446AFF300802046FFF7A9FF004870471F
:10027000E405002000BFFEE770472DE9F04102468B
:1002800000250026002000230024002791F803C049
:100290000CF00F0591F803C00CF0100CBCF1000F2E
:1002A00003D091F802C04CEA050591F800C0BCF1FA
:1002B000000F31D0146800202BE04FF0010C0CFA35
:1002C00000F3B1F800C00CEA03069E4220D183007F
:1002D0004FF00F0C0CFA03F7BC4305FA03FC4CEA91
:1002E000040491F803C0BCF1280F06D14FF0010CB3
:1002F0000CFA00FCC2F814C00AE091F803C0BCF18B
:10030000480F05D14FF0010C0CFA00FCC2F810C0E8
:10031000401C0828D1D31460B1F800C0BCF1FF0F15
:1003200034DD546800202EE000F1080C4FF0010885
:1003300008FA0CF3B1F800C00CEA03069E4221D182
:1003400083004FF00F0C0CFA03F7BC4305FA03FCD3
:100350004CEA040491F803C0BCF1280F05D100F168
:10036000080C08FA0CF8C2F8148091F803C0BCF12C
:10037000480F07D100F1080C4FF0010808FA0CF8FB
:10038000C2F81080401C0828CED35460BDE8F0812C
:100390000161704700BFFEE71CB541F61F4142F204
:1003A0000F7000F037FA00F0B1F800F091FB022571
:1003B00082E0601C84B2414800880A2190FBF1F27F
:1003C00001FB120080B2ADF800003C48008890FBB1
:1003D000F1F080B2ADF802003948008890FBF1F2EC
:1003E00001FB120080B2ADF804003548008890FB94
:1003F000F1F080B2ADF80600BDF80600314951F8C1
:10040000200031490860002030490860284600F08B
:1004100081FB01202E49C1F88001502C16DBBDF86C
:100420000400284951F82000803027490860002046
:100430002649091D0860284600F06CFB012024496C
:10044000C1F88401962C13D1002411E0BDF80400FA
:100450001C4951F820001C49086000201B49091D57
:100460000860284600F056FB01201949C1F88401B4
:10047000BDF80200134951F820001349086000201C
:10048000124928310860284600F044FB0120104939
:10049000C1F8A801BDF800000A4951F820000A4936
:1004A0000860002009492C310860284600F032FB22
:1004B00001200749C1F8AC017BE7000022000020C1
:1004C00020000020280000200C08014080812142EB
:1004D0000080214208B50121082000F085F8102095
:1004E0008DF8030040F60340ADF8000003208DF8BE
:1004F000020069460448FFF7C0FE40F60341024887
:10050000FFF746FF08BD0000000C014010B500F0E9
:1005100003F8FFF7DFFF10BD08B50121042000F04C
:1005200063F810208DF80300FF20ADF800000320D1
:100530008DF8020069460448FFF79FFEFF2102483C
:10054000FFF726FF08BD00000008014000BFFEE7DE
:100550007047000070B5002100230F22C47804B357
:10056000154C246804F4E064C4F5E064210AC1F188
:100570000403CA40447804FA03F184781440214308
:1005800009010E4C0678A155047804F01F050124DA
:10059000AC4005786D11AD0005F1E025C5F80041CE
:1005A00009E0047804F01F050124AC40044D0678EE
:1005B000761145F8264070BD0CED00E000E400E047
:1005C00080E100E07047000029B1064AD269024389
:1005D000044BDA6104E0034AD2698243014BDA61D9
:1005E000704700000010024029B1064A9269024398
:1005F000044B9A6104E0034A92698243014B9A6179
:100600007047000000100240704710B500F002F87B
:1006100010BD00000CB50020019000903348006828
:1006200040F480303149086000BF3048006800F471
:10063000003000900198401C0190009818B9019872
:10064000B0F5A06FF1D12948006800F4003010B176
:100650000120009001E0002000900098012843D183
:100660002348006840F010002149086008460068EF
:1006700020F0030008600846006840F002000860AF
:100680001A4840681949486008464068486008466A
:10069000406840F4806048600846406820F47C1060
:1006A00048600846406840F4E81048600846006822
:1006B00040F08070086000BF0C48006800F00070D7
:1006C0000028F9D00948406820F003000749486035
:1006D0000846406840F00200486000BF0348406898
:1006E00000F00C000828F9D10CBD000000100240F9
:1006F00000200240042808D14FF0E021096941F0B0
:1007000004014FF0E022116107E04FF0E021096998
:1007100021F004014FF0E0221161704770470000A2
:1007200010B51348006840F0010011490860084600
:100730004068104908400E494860084600680E4964
:1007400008400B4908600846006820F480200860D3
:100750000846406820F4FE0048604FF41F0088609F
:10076000FFF753FF4FF000600449086010BD000020
:10077000001002400000FFF8FFFFF6FE08ED00E069
:1007800010B50121880700F084F818B1012188070D
:1007900000F070F810BD000010B50121184800F0FD
:1007A00078F860B317480088401C1649088008464E
:1007B00000883C2819D114480088401C1249088040
:1007C000002010490880104800883C280DD10020E6
:1007D0000D4908800D480088401C0C4908800846D7
:1007E0000088182801D1002008800948008840F4BA
:1007F0000040074908800121014800F03BF810BD86
:1008000000140040240000202200002020000020CE
:100810001E0000207FB505460C4601212020FFF771
:10082000D3FEADF80450ADF800400020ADF806004E
:10083000ADF8020069460E4800F048F80122114662
:100840000B4800F037F80121094800F016F837206E
:100850008DF80C0000208DF80D0002208DF80E00A0
:1008600001208DF80F0003A8FFF774FE7FBD000084
:1008700000140040CA430282704721B1028842F04E
:100880000102028004E002884FF6FE731A400280E3
:10089000704730B50246002000230024158A05EA7F
:1008A0000103958905EA010413B10CB1012000E0B0
:1008B000002030BD1AB183890B43838102E0838914
:1008C0008B43838170478184704700000022028837
:1008D0001D4B98420ED01D4B98420BD0B0F1804F6B
:1008E00008D01B4B984205D01A4B984202D01A4BA5
:1008F000984204D14FF68F731A404B881A43174B16
:10090000984207D0164B984204D04FF6FF431A4046
:10091000CB881A4302808B8883850B8803850A4B1A
:1009200098420BD0094B984208D00E4B984205D004
:100930000D4B984202D00D4B984201D10B7A0386A1
:100940000123838270470000002C014000340140E5
:100950000004004000080040000C0040001000406F
:1009600000140040004001400044014000480140A4
:1009700010B540F225511D4800F076F810B31B4821
:1009800000F09CF8C4B21A48008800F40040C8B9CE
:100990001748008800F4804060B10A2C03D0002082
:1009A0001349088020E01248008840F400401049B4
:1009B000088019E00D2C06D10D48008840F48040D5
:1009C0000B49088010E00A480088C0F30D0009496F
:1009D0000C5407480088401C0549088008460088D8
:1009E000C72801DD0020088010BD0000003801404C
:1009F0001C0000206C00002010B540F22551164864
:100A000000F032F8F8B1144800F058F8C4B21348B6
:100A1000008800F40040B0B910480088B0F5167F97
:100A200012DA00210E48FFF74EFF0C48008818B973
:100A300001210B48FFF721FF08490888411C074A9C
:100A4000118008490C5405E00448008840F4004037
:100A50000249088010BD0000004800401E00002030
:100A6000001400403401002070B502460024002329
:100A70000025002040F66A16B14200D100BFC1F344
:100A8000421501F01F03012606FA03F3012D02D1DE
:100A90009689334006E0022D02D1168A334001E0E8
:100AA000968A33400C12012606FA04F41688344064
:100AB00013B10CB1012000E0002070BD0146888810
:100AC000C0F30800704700BFFEE700BF704700009A
:100AD00010B56FF00400FFF70DFE0A4800680A49E0
:100AE000B0FBF1F0094908700846007800EB4001BE
:100AF000C1EBC0104FF6FF7101EAC0000449088045
:100B000010BD00000000002000127A001400002038
:100B1000160000200146114A12884A434FF0E02394
:100B20005A6100229A611A46126942F001021A6162
:100B300000BF4FF0E022106900F001021AB100F48A
:100B40008032002AF5D04FF0E022126922F0010233
:100B50004FF0E0231A6100229A61704716000020CE
:100B600010B5FFF719FC002010BD00008C0B000829
:100B7000000000206C0000006C010008F80B000869
:100B80006C000020DC0B00008801000800A24A0471
:100B9000000000000000000001020304060708092D
:100BA0000000000000000000000000001600170018
:100BB00000000000C0000000F9000000A4000000D8
:100BC000B0000000990000009200000082000000C8
:100BD000F800000080000000900000008800000085
:100BE00083000000C6000000A10000008600000095
:080BF0008E000000FF00000070
:0400000508000131BD
:00000001FF
